:020000040800F2
:100000003804002045010008B5040008B1020008CA
:10001000590400088D010008C31100080000000009
:10002000000000000000000000000000550600086D
:1000300091010008000000003D050008C10700080C
:100040005F0100085F0100085F0100085F01000810
:100050005F0100085F0100085F0100085F01000800
:100060005F0100085F0100085F0100085F010008F0
:100070005F0100085F0100085F0100085F010008E0
:100080005F0100085F0100085F0100085F010008D0
:100090005F0100085F0100085F0100085F010008C0
:1000A0005F0100085F0100085F0100085F010008B0
:1000B0005F0100085F0100085F0100085F010008A0
:1000C0005F0100085F0100085F0100085F01000890
:1000D0005F010008710F00085F0100085F01000860
:1000E0005F0100085F0100085F0100085F01000870
:1000F0005F0100085F0100085F0100085F01000860
:100100005F0100085F0100085F0100085F0100084F
:100110005F0100085F0100085F0100085F0100083F
:100120005F0100085F0100085F0100085F0100082F
:10013000DFF80CD000F018F80048004775120008EE
:10014000380400200648804706480047FEE7FEE7DF
:10015000FEE7FEE7FEE7FEE7FEE7FEE7FEE7FEE777
:10016000C507000831010008064C074D06E0E068AD
:1001700040F0010394E8070098471034AC42F6D3EE
:10018000FFF7DAFFC0130008E013000800BFFEE726
:1001900070472DE9F041024600250026002000238B
:1001A0000024002791F803C00CF00F0591F803C05C
:1001B0000CF0100CBCF1000F03D091F802C04CEA17
:1001C000050591F800C0BCF1000F31D01468002083
:1001D0002BE04FF0010C0CFA00F3B1F800C00CEA70
:1001E00003069E4220D183004FF00F0C0CFA03F758
:1001F000BC4305FA03FC4CEA040491F803C0BCF1CB
:10020000280F06D14FF0010C0CFA00FCC2F814C004
:100210000AE091F803C0BCF1480F05D14FF0010C82
:100220000CFA00FCC2F810C0401C0828D1D314609E
:10023000B1F800C0BCF1FF0F34DD546800202EE09F
:1002400000F1080C4FF0010808FA0CF3B1F800C0F7
:100250000CEA03069E4221D183004FF00F0C0CFAEA
:1002600003F7BC4305FA03FC4CEA040491F803C00D
:10027000BCF1280F05D100F1080C08FA0CF8C2F8FF
:10028000148091F803C0BCF1480F07D100F1080CAD
:100290004FF0010808FA0CF8C2F81080401C08283A
:1002A000CED35460BDE8F081416170470161704771
:1002B00000BFFEE708B50121082000F051F9202019
:1002C000ADF8000010208DF8030003208DF8020027
:1002D00069460248FFF75DFF08BD0000000C0140C1
:1002E00010B500F07FFF472144F61F6000F09AFA36
:1002F00044F62C414FF0804000F033FD4FF49660FF
:1003000000F092FF0A2409E044F64401080700F0D7
:1003100028FD4FF4FA6000F087FF641E002CF3DA2A
:1003200044F25C414FF0804000F01BFD4FF49660BA
:1003300000F07AFF44F64401080700F012FD4FF484
:10034000FA6000F071FF10BD10B500F04BFF4721BF
:1003500044F61F6000F0CAFA42F6A871034800F0A4
:10036000FCFC4FF4FA6000F05FFF10BD0004004099
:1003700010B500F037FF472144F61F6000F0B6FAD1
:1003800042F65C31034800F0E8FC4FF4FA6000F0FC
:100390004BFF10BD0004004010B500F023FF4721C3
:1003A00044F61F6000F004FB44F62C41074800F0BF
:1003B000D6FC642000F038FF44F64401034800F006
:1003C000CEFC4FF47A7000F02FFF10BD0008004003
:1003D00010B500F007FF472144F61F6000F022FA35
:1003E00044F62C414FF0804000F0BDFC5A2000F054
:1003F0001BFF44F64401080700F0B5FC4FF47A7087
:1004000000F012FF10BD000010B500F0EBFE472118
:1004100044F61F6000F06AFA4FF42F61034800F0C1
:100420009CFC4FF4FA6000F0FFFE10BD0004004099
:1004300010B500F0D7FE472144F61F6000F056FAD1
:1004400044F61F61034800F088FC4FF4FA6000F0A6
:10045000EBFE10BD0004004000BFFEE708B501211F
:10046000102000F07DF84FF4FE50ADF8000003209E
:100470008DF8020010208DF8030069460B48FFF745
:1004800088FE4FF4FE510948FFF710FF012120209C
:1004900000F066F80420ADF8000069460448FFF754
:1004A00078FE04210248FFF701FF08BD001001405B
:1004B000001401407047000070B5002100230F2296
:1004C000C47804B3154C246804F4E064C4F5E06413
:1004D000210AC1F10403CA40447804FA03F1847884
:1004E0001440214309010E4C0678A155047804F00C
:1004F0001F050124AC4005786D11AD0005F1E02524
:10050000C5F8004109E0047804F01F050124AC405F
:10051000044D0678761145F8264070BD0CED00E0DC
:1005200000E400E080E100E002490143024A11607A
:10053000704700000000FA050CED00E07047000075
:1005400029B1064AD2690243044BDA6104E0034A46
:10055000D2698243014BDA6170470000001002400B
:1005600029B1064A92690243044B9A6104E0034AA6
:1005700092698243014B9A6170470000001002406B
:1005800030B500210022002400232D4D6D6805F0B8
:100590000C0121B1042905D0082923D105E0294DFA
:1005A000056022E0274D05601FE0254D6D6805F4CC
:1005B0007012234D6D6805F48034022505EB9242DC
:1005C0001CB9214D554305600BE01D4D6D6805F4C8
:1005D00000351DB11C4D5543056002E0194D5543D2
:1005E000056002E0174D056000BF00BF144D6D6847
:1005F00005F0F0010909154D6B5C0568DD404560AB
:100600000F4D6D6805F4E061090A104D6B5C45689B
:10061000DD4085600A4D6D6805F46051C90A0B4DD7
:100620006B5C4568DD40C560054D6D6805F4404173
:10063000890B074D6B5CC568B5FBF3F5056130BDF3
:100640000010024000127A0000093D002000002046
:1006500030000020704710B500F002F810BD000017
:100660000CB50020019000903348006840F48030C1
:100670003149086000BF3048006800F40030009045
:100680000198401C0190009818B90198B0F5A06F2E
:10069000F1D12948006800F4003010B10120009029
:1006A00001E0002000900098012843D12348006811
:1006B00040F01000214908600846006820F003005F
:1006C00008600846006840F0020008601A48406868
:1006D000194948600846406848600846406840F448
:1006E000806048600846406820F47C1048600846F6
:1006F000406840F4E81048600846006840F08070A8
:10070000086000BF0C48006800F000700028F9D0B5
:100710000948406820F003000749486008464068DF
:1007200040F00200486000BF0348406800F00C0041
:100730000828F9D10CBD0000001002400020024042
:1007400010B54FF480611248FFF7AEFD4FF4006121
:100750000F48FFF7A9FD4FF480510D48FFF7A4FDA6
:1007600040210B48FFF7A0FD80210948FFF79CFDC1
:100770004FF480710648FFF797FD04210548FFF705
:1007800093FD4FF400710248FFF78EFD10BD00008D
:100790000010014000140140042808D14FF0E0216E
:1007A000096941F004014FF0E022116107E04FF0C8
:1007B000E021096921F004014FF0E0221161704746
:1007C0007047000010B51348006840F0010011495F
:1007D000086008464068104908400E4948600846CD
:1007E00000680E4908400B4908600846006820F47C
:1007F000802008600846406820F4FE0048604FF4FE
:100800001F008860FFF727FF4FF000600449086071
:1008100010BD0000001002400000FFF8FFFFF6FED0
:1008200008ED00E030B589B005460C4601210846C8
:10083000FFF786FE01210520FFF792FE0121092026
:10084000FFF78EFE0C20ADF8200018208DF8230055
:1008500003208DF8220008A92348FFF79AFCADF881
:100860001850ADF814400020ADF81A00ADF816008D
:1008700005A94FF0804000F079FA7020ADF804002F
:100880000120ADF806000020ADF80C0001A94FF0E2
:10089000804000F017FA01A94FF0804000F0B8F94D
:1008A00001A94FF0804000F053F901A94FF08040BA
:1008B00000F0F8F80821C80600F042FA0821C8063E
:1008C00000F0F6F90821C80600F094F90821C806DE
:1008D00000F034F90121880700F0CCF801218807E5
:1008E00000F0D4F809B030BD0008014030B589B03F
:1008F00005460C4601210220FFF722FE01210520BA
:10090000FFF72EFE01210920FFF72AFEC020ADF8D7
:10091000200018208DF8230003208DF8220008A95C
:100920002148FFF736FCADF81850ADF81440002010
:10093000ADF81A00ADF8160005A91C4800F016FA2B
:100940007020ADF804000120ADF806000020ADF8DD
:100950000C0001A9154800F0B5F901A9134800F0F1
:1009600057F901A9114800F0F3F801A90F4800F068
:1009700099F808210D4800F0E3F908210B4800F030
:1009800097F90821094800F035F90821074800F0D7
:10099000D5F80121054800F06DF80121034800F069
:1009A00075F809B030BD00000008014000040040A7
:1009B00030B589B005460C4601210420FFF7C0FD83
:1009C00001210520FFF7CCFD01210920FFF7C8FD1B
:1009D000C020ADF8200018208DF8230003208DF8EA
:1009E000220008A92148FFF7D4FBADF81850ADF854
:1009F00014400020ADF81A00ADF8160005A91C48F7
:100A000000F0B4F97020ADF804000120ADF8060044
:100A10000020ADF80C0001A9154800F053F901A918
:100A2000134800F0F5F801A9114800F091F801A968
:100A30000F4800F037F808210D4800F081F908212F
:100A40000B4800F035F90821094800F0D3F80821D7
:100A5000074800F073F80121054800F00BF8012168
:100A6000034800F013F809B030BD0000000C01404D
:100A70000008004021B1028842F08002028004E0B8
:100A800002884FF67F731A400280704721B10288B6
:100A900042F00102028004E002884FF6FE731A4021
:100AA0000280704770B5002400220023058C4FF6A9
:100AB000FE7635400584028C8388048B4FF68F7553
:100AC0002C40B51E2C400D882C43751E2A400D89E4
:100AD0002A434D882A43144DA8420BD0134DA842F7
:100AE00008D0134DA84205D0124DA84202D0124D95
:100AF000A84213D14FF6F7752A404D892A434FF685
:100B0000FB752A408D882A434FF6FF652B404FF630
:100B1000FF552B408D892B43CD892B438380048344
:100B2000CD888586028470BD002C014000340140D0
:100B30000040014000440140004801400A460021B5
:100B4000018B4FF6F7731940114301837047000082
:100B500070B5002400220023058C4FF6EF76354057
:100B60000584028C8388048B48F6FF752C404FF671
:100B7000FF452C400D884FF6FF7606EA05252C43ED
:100B80004FF6DF752A400D8906EA05152A434D8880
:100B900006EA05152A43154DA84202D0144DA84275
:100BA0001DD14FF67F752A404D894FF6FF7606EA34
:100BB00005152A434FF6BF752A408D8806EA0515AC
:100BC0002A434FF6FF352B404FF2FF752B408D899E
:100BD00006EA85052B43CD8906EA85052B438380EC
:100BE0000483CD880587028470BD0000002C01407D
:100BF000003401400A460021018B4FF2FF73194077
:100C00004FF6FF7303EA0223194301837047000084
:100C100070B5002400220023058C4FF6FF66354096
:100C20000584028C8388848B4FF68F752C404FF699
:100C3000FC752C400D882C434FF6FF552A400D893A
:100C40004FF6FF7606EA05252A434D8806EA052574
:100C50002A43154DA84202D0144DA8421DD14FF28F
:100C6000FF752A404D894FF6FF7606EA05252A438F
:100C70004FF6FF352A408D8806EA05252A434EF6B1
:100C8000FF752B404DF6FF752B408D8906EA051543
:100C90002B43CD8906EA05152B4383808483CD88B9
:100CA0008587028470BD0000002C014000340140A3
:100CB0000A460021818B4FF6F77319401143818357
:100CC0007047000070B5002200230024058C4EF60A
:100CD000FF7635400584038C8488828B48F6FF7547
:100CE0002A404FF6FF452A400D884FF6FF7606EA68
:100CF00005252A434DF6FF752B400D8906EA05357B
:100D00002B434D8806EA05352B430B4DA84202D0F4
:100D10000A4DA84208D14BF6FF752C408D894FF63D
:100D2000FF7606EA85152C4384808283CD88A0F85F
:100D30004050038470BD0000002C0140003401408D
:100D40000A460021818B4FF2FF7319404FF6FF7363
:100D500003EA022319438183704781867047018724
:100D6000704781877047A0F84010704700220288C2
:100D70001D4B98420ED01D4B98420BD0B0F1804FC6
:100D800008D01B4B984205D01A4B984202D01A4B00
:100D9000984204D14FF68F731A404B881A43174B71
:100DA000984207D0164B984204D04FF6FF431A40A2
:100DB000CB881A4302808B8883850B8803850A4B76
:100DC00098420BD0094B984208D00E4B984205D060
:100DD0000D4B984202D00D4B984201D10B7A0386FD
:100DE0000123838270470000002C01400034014041
:100DF0000004004000080040000C004000100040CB
:100E000000140040004001400044014000480140FF
:100E100010B54FF480611248FFF748FA4FF40061B3
:100E20000F48FFF741FA4FF480510D48FFF73EFAA3
:100E300040210B48FFF738FA80210948FFF736FABE
:100E40004FF480710648FFF72FFA04210548FFF799
:100E50002DFA4FF400710248FFF726FA10BD00008A
:100E6000001001400014014010B54FF48061124899
:100E7000FFF71AFA4FF400610F48FFF717FA4FF423
:100E800080510D48FFF710FA40210B48FFF70EFA8A
:100E900080210948FFF708FA4FF480710648FFF7F0
:100EA00005FA04210548FFF7FFF94FF400710248E5
:100EB000FFF7FCF910BD00000010014000140140D4
:100EC00010B54FF480611248FFF7EEF94FF400615E
:100ED0000F48FFF7EBF94FF480510D48FFF7E6F9A3
:100EE00040210B48FFF7E0F980210948FFF7DCF9C2
:100EF0004FF480710648FFF7D9F904210548FFF740
:100F0000D5F94FF400710248FFF7CEF910BD00008B
:100F1000001001400014014010B54FF480611248E8
:100F2000FFF7C4F94FF400610F48FFF7BDF94FF424
:100F300080510D48FFF7B8F940210B48FFF7B6F98B
:100F400080210948FFF7B2F94FF480710648FFF796
:100F5000ABF904210548FFF7A7F94FF400710248E7
:100F6000FFF7A4F910BD000000100140001401407B
:100F700010B540F22551214800F063F801283CD11A
:100F800040F225511D4800F041F840211C48FFF770
:100F90008BF91A4800F010F91A49087003201A4911
:100FA00008701848007808B90020087015480078C3
:100FB000012801D11449087012480078022801D193
:100FC000114908700F480078032801D10E490870B4
:100FD0000C480078042801D10B49087009480078B2
:100FE000052801D10849087006480078062801D173
:100FF0000549087004200449087010BD00380140FC
:1010000000100140040000200500002010B500225F
:10101000002340F66A14A14200D100BF0A12012445
:101020009440A3B2DC43048010BD21B1828942F414
:101030000052828104E082894DF6FF731A4082815A
:10104000704770B50246002400230025002040F6BA
:101050006A16B14200D100BFC1F3421501F01F036F
:10106000012606FA03F3012D02D19689334006E0EA
:10107000022D02D1168A334001E0968A33400C12C9
:10108000012606FA04F41688344013B10CB101208D
:1010900000E0002070BDF0B50346002400260025C6
:1010A000002040F66A17B94200D100BF1846C1F3CC
:1010B000421401F01F06012707FA06F5012C01D1A1
:1010C0000C3004E0022C01D1103000E014301AB1D1
:1010D00007682F43076002E00768AF430760F0BD71
:1010E0002DE9F04786B005460E460024A24600BF13
:1010F000A1460027B08900B100BF2F462C8A4CF6CC
:10110000FF700440F08804432C82AC894EF6F31043
:101110000440B08831890843718908430443AC8195
:10112000AC8A4FF6FF400440B0890443AC8201A86A
:10113000FFF726FA1F48874202D1DDF810A001E030
:10114000DDF80CA0A88900F4004040B10AEBCA0009
:1011500000EB0A1031684900B0FBF1F807E00AEB38
:10116000CA0000EB0A1031688900B0FBF1F8642076
:10117000B8FBF0F004012009642101FB1089A88963
:1011800000F4004040B1322000EBC900B0FBF1F0A8
:1011900000F00700044308E0322000EB091064214E
:1011A000B0FBF1F000F00F0004432C8106B0BDE865
:1011B000F08700000038014001468888C0F308002D
:1011C000704700BFFEE702E008C8121F08C1002AEE
:1011D000FAD170477047002001E001C1121F002AB8
:1011E000FBD1704710B56FF00400FFF7D5FA0A483D
:1011F00000680A49B0FBF1F0094908700846007818
:1012000000EB4001C1EBC0104FF6FF7101EAC000D6
:101210000449088010BD00000800002000127A0078
:101220001C0000201E0000200146114A12884A437B
:101230004FF0E0235A6100229A611A46126942F087
:1012400001021A6100BF4FF0E022106900F00102B4
:101250001AB100F48032002AF5D04FF0E022126972
:1012600022F001024FF0E0231A6100229A617047D8
:101270001E00002086B0012144F20400FFF770F93F
:101280004FF40070ADF8140003208DF816001820FC
:101290008DF8170005A94648FEF77BFF4FF48060E4
:1012A000ADF8140004208DF8170005A94048FEF79A
:1012B00070FF4FF4165001900020ADF80800ADF813
:1012C0000A00ADF80C00ADF810000C20ADF80E00CF
:1012D00001A93848FFF704FF012240F225513548A3
:1012E000FFF7D9FE4FF4A060FFF71EF925208DF817
:1012F000000003208DF801008DF8020001208DF818
:1013000003006846FFF7D8F801212A48FFF78DFE51
:10131000FFF7A4F8FEF7CEFF20212748FEF7C6FF0F
:10132000FFF726FE42E025480078362828D008DC62
:10133000A0F13000062835D2DFE800F010131619AE
:101340001C1F392825D004DC37281CD0382829D187
:101350001CE0612820D0622824D120E0FFF7F0F9BA
:1013600023E0FFF7ADFD20E0FFF7D6FD1DE0FFF71E
:101370004FFD1AE0FFF778FD17E0FFF759F814E08A
:10138000FFF726F811E0FEF7ABFF0EE0FEF7DCFFFB
:101390000BE0FEF7EDFF08E0FEF7FEFF05E0FFF7CC
:1013A00033F802E0FFF7CCF900BF00BFBBE7000055
:1013B0000008014000380140000C014004000020FA
:1013C000E01300080000002034000000C6110008EF
:1013D000141400083400002004040000D611000892
:1013E0007B0000000000000000A24A040000000092
:1013F00000000000010203040607080900000000C5
:1014000000000000010203040102030406070809AA
:0414100002040608C4
:0400000508000131BD
:00000001FF
